{
  "_format": "hh-sol-artifact-1",
  "contractName": "RWARegistry",
  "sourceName": "contracts/RWARegistry.sol",
  "abi": [
    {
      "anonymous": false,
      "inputs": [
        {
          "indexed": true,
          "internalType": "uint256",
          "name": "id",
          "type": "uint256"
        },
        {
          "indexed": true,
          "internalType": "address",
          "name": "owner",
          "type": "address"
        },
        {
          "indexed": false,
          "internalType": "string",
          "name": "metadataURI",
          "type": "string"
        },
        {
          "indexed": false,
          "internalType": "uint256",
          "name": "valuationUSD",
          "type": "uint256"
        }
      ],
      "name": "AssetRegistered",
      "type": "event"
    },
    {
      "inputs": [],
      "name": "assetCounter",
      "outputs": [
        {
          "internalType": "uint256",
          "name": "",
          "type": "uint256"
        }
      ],
      "stateMutability": "view",
      "type": "function"
    },
    {
      "inputs": [
        {
          "internalType": "uint256",
          "name": "",
          "type": "uint256"
        }
      ],
      "name": "assets",
      "outputs": [
        {
          "internalType": "uint256",
          "name": "id",
          "type": "uint256"
        },
        {
          "internalType": "address",
          "name": "owner",
          "type": "address"
        },
        {
          "internalType": "string",
          "name": "metadataURI",
          "type": "string"
        },
        {
          "internalType": "uint256",
          "name": "valuationUSD",
          "type": "uint256"
        }
      ],
      "stateMutability": "view",
      "type": "function"
    },
    {
      "inputs": [
        {
          "internalType": "uint256",
          "name": "assetId",
          "type": "uint256"
        }
      ],
      "name": "getAsset",
      "outputs": [
        {
          "components": [
            {
              "internalType": "uint256",
              "name": "id",
              "type": "uint256"
            },
            {
              "internalType": "address",
              "name": "owner",
              "type": "address"
            },
            {
              "internalType": "string",
              "name": "metadataURI",
              "type": "string"
            },
            {
              "internalType": "uint256",
              "name": "valuationUSD",
              "type": "uint256"
            }
          ],
          "internalType": "struct RWARegistry.Asset",
          "name": "",
          "type": "tuple"
        }
      ],
      "stateMutability": "view",
      "type": "function"
    },
    {
      "inputs": [
        {
          "internalType": "string",
          "name": "metadataURI",
          "type": "string"
        },
        {
          "internalType": "uint256",
          "name": "valuationUSD",
          "type": "uint256"
        }
      ],
      "name": "registerAsset",
      "outputs": [
        {
          "internalType": "uint256",
          "name": "",
          "type": "uint256"
        }
      ],
      "stateMutability": "nonpayable",
      "type": "function"
    }
  ],
  "bytecode": "0x608060405234801561001057600080fd5b50610c54806100206000396000f3fe608060405234801561001057600080fd5b506004361061004c5760003560e01c80634b91878614610051578063cf35bdd01461006f578063eac8f5b8146100a2578063f65db150146100d2575b600080fd5b610059610102565b60405161006691906104df565b60405180910390f35b61008960048036038101906100849190610530565b610108565b604051610099949392919061062e565b60405180910390f35b6100bc60048036038101906100b79190610530565b6101e0565b6040516100c99190610745565b60405180910390f35b6100ec60048036038101906100e791906107cc565b610308565b6040516100f991906104df565b60405180910390f35b60015481565b60006020528060005260406000206000915090508060000154908060010160009054906101000a900473ffffffffffffffffffffffffffffffffffffffff16908060020180546101579061085b565b80601f01602080910402602001604051908101604052809291908181526020018280546101839061085b565b80156101d05780601f106101a5576101008083540402835291602001916101d0565b820191906000526020600020905b8154815290600101906020018083116101b357829003601f168201915b5050505050908060030154905084565b6101e8610488565b600080838152602001908152602001600020604051806080016040529081600082015481526020016001820160009054906101000a900473ffffffffffffffffffffffffffffffffffffffff1673ffffffffffffffffffffffffffffffffffffffff1673ffffffffffffffffffffffffffffffffffffffff1681526020016002820180546102759061085b565b80601f01602080910402602001604051908101604052809291908181526020018280546102a19061085b565b80156102ee5780601f106102c3576101008083540402835291602001916102ee565b820191906000526020600020905b8154815290600101906020018083116102d157829003601f168201915b505050505081526020016003820154815250509050919050565b60006001600081548092919061031d906108bb565b9190505550604051806080016040528060015481526020013373ffffffffffffffffffffffffffffffffffffffff16815260200185858080601f016020809104026020016040519081016040528093929190818152602001838380828437600081840152601f19601f8201169050808301925050505050505081526020018381525060008060015481526020019081526020016000206000820151816000015560208201518160010160006101000a81548173ffffffffffffffffffffffffffffffffffffffff021916908373ffffffffffffffffffffffffffffffffffffffff16021790555060408201518160020190816104199190610ade565b50606082015181600301559050503373ffffffffffffffffffffffffffffffffffffffff166001547f17bfbb947caca86ac77ea06397ced8c4f77a1a6c82a21b5a05a738ceddc1f66086868660405161047493929190610bec565b60405180910390a360015490509392505050565b604051806080016040528060008152602001600073ffffffffffffffffffffffffffffffffffffffff16815260200160608152602001600081525090565b6000819050919050565b6104d9816104c6565b82525050565b60006020820190506104f460008301846104d0565b92915050565b600080fd5b600080fd5b61050d816104c6565b811461051857600080fd5b50565b60008135905061052a81610504565b92915050565b600060208284031215610546576105456104fa565b5b60006105548482850161051b565b91505092915050565b600073ffffffffffffffffffffffffffffffffffffffff82169050919050565b60006105888261055d565b9050919050565b6105988161057d565b82525050565b600081519050919050565b600082825260208201905092915050565b60005b838110156105d85780820151818401526020810190506105bd565b60008484015250505050565b6000601f19601f8301169050919050565b60006106008261059e565b61060a81856105a9565b935061061a8185602086016105ba565b610623816105e4565b840191505092915050565b600060808201905061064360008301876104d0565b610650602083018661058f565b818103604083015261066281856105f5565b905061067160608301846104d0565b95945050505050565b610683816104c6565b82525050565b6106928161057d565b82525050565b600082825260208201905092915050565b60006106b48261059e565b6106be8185610698565b93506106ce8185602086016105ba565b6106d7816105e4565b840191505092915050565b60006080830160008301516106fa600086018261067a565b50602083015161070d6020860182610689565b506040830151848203604086015261072582826106a9565b915050606083015161073a606086018261067a565b508091505092915050565b6000602082019050818103600083015261075f81846106e2565b905092915050565b600080fd5b600080fd5b600080fd5b60008083601f84011261078c5761078b610767565b5b8235905067ffffffffffffffff8111156107a9576107a861076c565b5b6020830191508360018202830111156107c5576107c4610771565b5b9250929050565b6000806000604084860312156107e5576107e46104fa565b5b600084013567ffffffffffffffff811115610803576108026104ff565b5b61080f86828701610776565b935093505060206108228682870161051b565b9150509250925092565b7f4e487b7100000000000000000000000000000000000000000000000000000000600052602260045260246000fd5b6000600282049050600182168061087357607f821691505b6020821081036108865761088561082c565b5b50919050565b7f4e487b7100000000000000000000000000000000000000000000000000000000600052601160045260246000fd5b60006108c6826104c6565b91507fffffffffffffffffffffffffffffffffffffffffffffffffffffffffffffffff82036108f8576108f761088c565b5b600182019050919050565b7f4e487b7100000000000000000000000000000000000000000000000000000000600052604160045260246000fd5b60008190508160005260206000209050919050565b60006020601f8301049050919050565b600082821b905092915050565b6000600883026109947fffffffffffffffffffffffffffffffffffffffffffffffffffffffffffffffff82610957565b61099e8683610957565b95508019841693508086168417925050509392505050565b6000819050919050565b60006109db6109d66109d1846104c6565b6109b6565b6104c6565b9050919050565b6000819050919050565b6109f5836109c0565b610a09610a01826109e2565b848454610964565b825550505050565b600090565b610a1e610a11565b610a298184846109ec565b505050565b5b81811015610a4d57610a42600082610a16565b600181019050610a2f565b5050565b601f821115610a9257610a6381610932565b610a6c84610947565b81016020851015610a7b578190505b610a8f610a8785610947565b830182610a2e565b50505b505050565b600082821c905092915050565b6000610ab560001984600802610a97565b1980831691505092915050565b6000610ace8383610aa4565b9150826002028217905092915050565b610ae78261059e565b67ffffffffffffffff811115610b0057610aff610903565b5b610b0a825461085b565b610b15828285610a51565b600060209050601f831160018114610b485760008415610b36578287015190505b610b408582610ac2565b865550610ba8565b601f198416610b5686610932565b60005b82811015610b7e57848901518255600182019150602085019450602081019050610b59565b86831015610b9b5784890151610b97601f891682610aa4565b8355505b6001600288020188555050505b505050505050565b82818337600083830152505050565b6000610bcb83856105a9565b9350610bd8838584610bb0565b610be1836105e4565b840190509392505050565b60006040820190508181036000830152610c07818587610bbf565b9050610c1660208301846104d0565b94935050505056fea2646970667358221220f32520bdea12815f7931a7e829a005373ac42512ec51265424bac87071dea94164736f6c63430008140033",
  "linkReferences": {},
  "deployedLinkReferences": {}
}