{"contracts/CCIPRouter.sol":{"CCIPRouter":{"abi":[{"inputs":[{"internalType":"string","name":"data","type":"string"}],"name":"receiveMessage","outputs":[],"stateMutability":"nonpayable","type":"function"}],"evm":{"bytecode":{"linkReferences":{},"object":"608060405234801561001057600080fd5b5061012a806100206000396000f3fe6080604052348015600f57600080fd5b506004361060285760003560e01c80632f049bf314602d575b600080fd5b60436004803603810190603f919060af565b6045565b005b5050565b600080fd5b600080fd5b600080fd5b600080fd5b600080fd5b60008083601f84011260755760746053565b5b8235905067ffffffffffffffff811115608f57608e6058565b5b60208301915083600182028301111560a85760a7605d565b5b9250929050565b6000806020838503121560c35760c26049565b5b600083013567ffffffffffffffff81111560de5760dd604e565b5b60e8858286016062565b9250925050925092905056fea26469706673582212204767da7f7fe3d66a1c8470ec0f97dd8a376b03320880211c61d6361932c5bf7564736f6c63430008140033","opcodes":"PUSH1 0x80 PUSH1 0x40 MSTORE CALLVALUE DUP1 ISZERO PUSH2 0x10 JUMPI PUSH1 0x0 DUP1 REVERT JUMPDEST POP PUSH2 0x12A DUP1 PUSH2 0x20 PUSH1 0x0 CODECOPY PUSH1 0x0 RETURN INVALID PUSH1 0x80 PUSH1 0x40 MSTORE CALLVALUE DUP1 ISZERO PUSH1 0xF JUMPI PUSH1 0x0 DUP1 REVERT JUMPDEST POP PUSH1 0x4 CALLDATASIZE LT PUSH1 0x28 JUMPI PUSH1 0x0 CALLDATALOAD PUSH1 0xE0 SHR DUP1 PUSH4 0x2F049BF3 EQ PUSH1 0x2D JUMPI JUMPDEST PUSH1 0x0 DUP1 REVERT JUMPDEST PUSH1 0x43 PUSH1 0x4 DUP1 CALLDATASIZE SUB DUP2 ADD SWAP1 PUSH1 0x3F SWAP2 SWAP1 PUSH1 0xAF JUMP JUMPDEST PUSH1 0x45 JUMP JUMPDEST STOP JUMPDEST POP POP JUMP JUMPDEST PUSH1 0x0 DUP1 REVERT JUMPDEST PUSH1 0x0 DUP1 REVERT JUMPDEST PUSH1 0x0 DUP1 REVERT JUMPDEST PUSH1 0x0 DUP1 REVERT JUMPDEST PUSH1 0x0 DUP1 REVERT JUMPDEST PUSH1 0x0 DUP1 DUP4 PUSH1 0x1F DUP5 ADD SLT PUSH1 0x75 JUMPI PUSH1 0x74 PUSH1 0x53 JUMP JUMPDEST JUMPDEST DUP3 CALLDATALOAD SWAP1 POP PUSH8 0xFFFFFFFFFFFFFFFF DUP2 GT ISZERO PUSH1 0x8F JUMPI PUSH1 0x8E PUSH1 0x58 JUMP JUMPDEST JUMPDEST PUSH1 0x20 DUP4 ADD SWAP2 POP DUP4 PUSH1 0x1 DUP3 MUL DUP4 ADD GT ISZERO PUSH1 0xA8 JUMPI PUSH1 0xA7 PUSH1 0x5D JUMP JUMPDEST JUMPDEST SWAP3 POP SWAP3 SWAP1 POP JUMP JUMPDEST PUSH1 0x0 DUP1 PUSH1 0x20 DUP4 DUP6 SUB SLT ISZERO PUSH1 0xC3 JUMPI PUSH1 0xC2 PUSH1 0x49 JUMP JUMPDEST JUMPDEST PUSH1 0x0 DUP4 ADD CALLDATALOAD PUSH8 0xFFFFFFFFFFFFFFFF DUP2 GT ISZERO PUSH1 0xDE JUMPI PUSH1 0xDD PUSH1 0x4E JUMP JUMPDEST JUMPDEST PUSH1 0xE8 DUP6 DUP3 DUP7 ADD PUSH1 0x62 JUMP JUMPDEST SWAP3 POP SWAP3 POP POP SWAP3 POP SWAP3 SWAP1 POP JUMP INVALID LOG2 PUSH5 0x6970667358 0x22 SLT KECCAK256 SELFBALANCE PUSH8 0xDA7F7FE3D66A1C84 PUSH17 0xEC0F97DD8A376B03320880211C61D63619 ORIGIN 0xC5 0xBF PUSH22 0x64736F6C634300081400330000000000000000000000 "},"methodIdentifiers":{"receiveMessage(string)":"2f049bf3"}}}}}