{
  "_format": "hh-sol-artifact-1",
  "contractName": "MockRealEstate",
  "sourceName": "contracts/MockRealEstate.sol",
  "abi": [
    {
      "inputs": [
        {
          "internalType": "address",
          "name": "initialOwner",
          "type": "address"
        }
      ],
      "stateMutability": "nonpayable",
      "type": "constructor"
    },
    {
      "inputs": [
        {
          "internalType": "address",
          "name": "sender",
          "type": "address"
        },
        {
          "internalType": "uint256",
          "name": "tokenId",
          "type": "uint256"
        },
        {
          "internalType": "address",
          "name": "owner",
          "type": "address"
        }
      ],
      "name": "ERC721IncorrectOwner",
      "type": "error"
    },
    {
      "inputs": [
        {
          "internalType": "address",
          "name": "operator",
          "type": "address"
        },
        {
          "internalType": "uint256",
          "name": "tokenId",
          "type": "uint256"
        }
      ],
      "name": "ERC721InsufficientApproval",
      "type": "error"
    },
    {
      "inputs": [
        {
          "internalType": "address",
          "name": "approver",
          "type": "address"
        }
      ],
      "name": "ERC721InvalidApprover",
      "type": "error"
    },
    {
      "inputs": [
        {
          "internalType": "address",
          "name": "operator",
          "type": "address"
        }
      ],
      "name": "ERC721InvalidOperator",
      "type": "error"
    },
    {
      "inputs": [
        {
          "internalType": "address",
          "name": "owner",
          "type": "address"
        }
      ],
      "name": "ERC721InvalidOwner",
      "type": "error"
    },
    {
      "inputs": [
        {
          "internalType": "address",
          "name": "receiver",
          "type": "address"
        }
      ],
      "name": "ERC721InvalidReceiver",
      "type": "error"
    },
    {
      "inputs": [
        {
          "internalType": "address",
          "name": "sender",
          "type": "address"
        }
      ],
      "name": "ERC721InvalidSender",
      "type": "error"
    },
    {
      "inputs": [
        {
          "internalType": "uint256",
          "name": "tokenId",
          "type": "uint256"
        }
      ],
      "name": "ERC721NonexistentToken",
      "type": "error"
    },
    {
      "inputs": [
        {
          "internalType": "address",
          "name": "owner",
          "type": "address"
        }
      ],
      "name": "OwnableInvalidOwner",
      "type": "error"
    },
    {
      "inputs": [
        {
          "internalType": "address",
          "name": "account",
          "type": "address"
        }
      ],
      "name": "OwnableUnauthorizedAccount",
      "type": "error"
    },
    {
      "anonymous": false,
      "inputs": [
        {
          "indexed": true,
          "internalType": "address",
          "name": "owner",
          "type": "address"
        },
        {
          "indexed": true,
          "internalType": "address",
          "name": "approved",
          "type": "address"
        },
        {
          "indexed": true,
          "internalType": "uint256",
          "name": "tokenId",
          "type": "uint256"
        }
      ],
      "name": "Approval",
      "type": "event"
    },
    {
      "anonymous": false,
      "inputs": [
        {
          "indexed": true,
          "internalType": "address",
          "name": "owner",
          "type": "address"
        },
        {
          "indexed": true,
          "internalType": "address",
          "name": "operator",
          "type": "address"
        },
        {
          "indexed": false,
          "internalType": "bool",
          "name": "approved",
          "type": "bool"
        }
      ],
      "name": "ApprovalForAll",
      "type": "event"
    },
    {
      "anonymous": false,
      "inputs": [
        {
          "indexed": true,
          "internalType": "address",
          "name": "previousOwner",
          "type": "address"
        },
        {
          "indexed": true,
          "internalType": "address",
          "name": "newOwner",
          "type": "address"
        }
      ],
      "name": "OwnershipTransferred",
      "type": "event"
    },
    {
      "anonymous": false,
      "inputs": [
        {
          "indexed": true,
          "internalType": "address",
          "name": "from",
          "type": "address"
        },
        {
          "indexed": true,
          "internalType": "address",
          "name": "to",
          "type": "address"
        },
        {
          "indexed": true,
          "internalType": "uint256",
          "name": "tokenId",
          "type": "uint256"
        }
      ],
      "name": "Transfer",
      "type": "event"
    },
    {
      "inputs": [
        {
          "internalType": "address",
          "name": "to",
          "type": "address"
        },
        {
          "internalType": "uint256",
          "name": "tokenId",
          "type": "uint256"
        }
      ],
      "name": "approve",
      "outputs": [],
      "stateMutability": "nonpayable",
      "type": "function"
    },
    {
      "inputs": [
        {
          "internalType": "address",
          "name": "owner",
          "type": "address"
        }
      ],
      "name": "balanceOf",
      "outputs": [
        {
          "internalType": "uint256",
          "name": "",
          "type": "uint256"
        }
      ],
      "stateMutability": "view",
      "type": "function"
    },
    {
      "inputs": [
        {
          "internalType": "uint256",
          "name": "tokenId",
          "type": "uint256"
        }
      ],
      "name": "getApproved",
      "outputs": [
        {
          "internalType": "address",
          "name": "",
          "type": "address"
        }
      ],
      "stateMutability": "view",
      "type": "function"
    },
    {
      "inputs": [
        {
          "internalType": "address",
          "name": "owner",
          "type": "address"
        },
        {
          "internalType": "address",
          "name": "operator",
          "type": "address"
        }
      ],
      "name": "isApprovedForAll",
      "outputs": [
        {
          "internalType": "bool",
          "name": "",
          "type": "bool"
        }
      ],
      "stateMutability": "view",
      "type": "function"
    },
    {
      "inputs": [
        {
          "internalType": "address",
          "name": "to",
          "type": "address"
        }
      ],
      "name": "mint",
      "outputs": [
        {
          "internalType": "uint256",
          "name": "",
          "type": "uint256"
        }
      ],
      "stateMutability": "nonpayable",
      "type": "function"
    },
    {
      "inputs": [],
      "name": "name",
      "outputs": [
        {
          "internalType": "string",
          "name": "",
          "type": "string"
        }
      ],
      "stateMutability": "view",
      "type": "function"
    },
    {
      "inputs": [],
      "name": "nextTokenId",
      "outputs": [
        {
          "internalType": "uint256",
          "name": "",
          "type": "uint256"
        }
      ],
      "stateMutability": "view",
      "type": "function"
    },
    {
      "inputs": [],
      "name": "owner",
      "outputs": [
        {
          "internalType": "address",
          "name": "",
          "type": "address"
        }
      ],
      "stateMutability": "view",
      "type": "function"
    },
    {
      "inputs": [
        {
          "internalType": "uint256",
          "name": "tokenId",
          "type": "uint256"
        }
      ],
      "name": "ownerOf",
      "outputs": [
        {
          "internalType": "address",
          "name": "",
          "type": "address"
        }
      ],
      "stateMutability": "view",
      "type": "function"
    },
    {
      "inputs": [],
      "name": "renounceOwnership",
      "outputs": [],
      "stateMutability": "nonpayable",
      "type": "function"
    },
    {
      "inputs": [
        {
          "internalType": "address",
          "name": "from",
          "type": "address"
        },
        {
          "internalType": "address",
          "name": "to",
          "type": "address"
        },
        {
          "internalType": "uint256",
          "name": "tokenId",
          "type": "uint256"
        }
      ],
      "name": "safeTransferFrom",
      "outputs": [],
      "stateMutability": "nonpayable",
      "type": "function"
    },
    {
      "inputs": [
        {
          "internalType": "address",
          "name": "from",
          "type": "address"
        },
        {
          "internalType": "address",
          "name": "to",
          "type": "address"
        },
        {
          "internalType": "uint256",
          "name": "tokenId",
          "type": "uint256"
        },
        {
          "internalType": "bytes",
          "name": "data",
          "type": "bytes"
        }
      ],
      "name": "safeTransferFrom",
      "outputs": [],
      "stateMutability": "nonpayable",
      "type": "function"
    },
    {
      "inputs": [
        {
          "internalType": "address",
          "name": "operator",
          "type": "address"
        },
        {
          "internalType": "bool",
          "name": "approved",
          "type": "bool"
        }
      ],
      "name": "setApprovalForAll",
      "outputs": [],
      "stateMutability": "nonpayable",
      "type": "function"
    },
    {
      "inputs": [
        {
          "internalType": "bytes4",
          "name": "interfaceId",
          "type": "bytes4"
        }
      ],
      "name": "supportsInterface",
      "outputs": [
        {
          "internalType": "bool",
          "name": "",
          "type": "bool"
        }
      ],
      "stateMutability": "view",
      "type": "function"
    },
    {
      "inputs": [],
      "name": "symbol",
      "outputs": [
        {
          "internalType": "string",
          "name": "",
          "type": "string"
        }
      ],
      "stateMutability": "view",
      "type": "function"
    },
    {
      "inputs": [
        {
          "internalType": "uint256",
          "name": "tokenId",
          "type": "uint256"
        }
      ],
      "name": "tokenURI",
      "outputs": [
        {
          "internalType": "string",
          "name": "",
          "type": "string"
        }
      ],
      "stateMutability": "view",
      "type": "function"
    },
    {
      "inputs": [
        {
          "internalType": "address",
          "name": "from",
          "type": "address"
        },
        {
          "internalType": "address",
          "name": "to",
          "type": "address"
        },
        {
          "internalType": "uint256",
          "name": "tokenId",
          "type": "uint256"
        }
      ],
      "name": "transferFrom",
      "outputs": [],
      "stateMutability": "nonpayable",
      "type": "function"
    },
    {
      "inputs": [
        {
          "internalType": "address",
          "name": "newOwner",
          "type": "address"
        }
      ],
      "name": "transferOwnership",
      "outputs": [],
      "stateMutability": "nonpayable",
      "type": "function"
    }
  ],
  "bytecode": "0x60806040523480156200001157600080fd5b506040516200277338038062002773833981810160405281019062000037919062000288565b806040518060400160405280600e81526020017f4d6f636b5265616c4573746174650000000000000000000000000000000000008152506040518060400160405280600381526020017f4d524500000000000000000000000000000000000000000000000000000000008152508160009081620000b5919062000534565b508060019081620000c7919062000534565b505050600073ffffffffffffffffffffffffffffffffffffffff168173ffffffffffffffffffffffffffffffffffffffff16036200013f5760006040517f1e4fbdf70000000000000000000000000000000000000000000000000000000081526004016200013691906200062c565b60405180910390fd5b62000150816200015860201b60201c565b505062000649565b6000600660009054906101000a900473ffffffffffffffffffffffffffffffffffffffff16905081600660006101000a81548173ffffffffffffffffffffffffffffffffffffffff021916908373ffffffffffffffffffffffffffffffffffffffff1602179055508173ffffffffffffffffffffffffffffffffffffffff168173ffffffffffffffffffffffffffffffffffffffff167f8be0079c531659141344cd1fd0a4f28419497f9722a3daafe3b4186f6b6457e060405160405180910390a35050565b600080fd5b600073ffffffffffffffffffffffffffffffffffffffff82169050919050565b6000620002508262000223565b9050919050565b620002628162000243565b81146200026e57600080fd5b50565b600081519050620002828162000257565b92915050565b600060208284031215620002a157620002a06200021e565b5b6000620002b18482850162000271565b91505092915050565b600081519050919050565b7f4e487b7100000000000000000000000000000000000000000000000000000000600052604160045260246000fd5b7f4e487b7100000000000000000000000000000000000000000000000000000000600052602260045260246000fd5b600060028204905060018216806200033c57607f821691505b602082108103620003525762000351620002f4565b5b50919050565b60008190508160005260206000209050919050565b60006020601f8301049050919050565b600082821b905092915050565b600060088302620003bc7fffffffffffffffffffffffffffffffffffffffffffffffffffffffffffffffff826200037d565b620003c886836200037d565b95508019841693508086168417925050509392505050565b6000819050919050565b6000819050919050565b6000620004156200040f6200040984620003e0565b620003ea565b620003e0565b9050919050565b6000819050919050565b6200043183620003f4565b6200044962000440826200041c565b8484546200038a565b825550505050565b600090565b6200046062000451565b6200046d81848462000426565b505050565b5b8181101562000495576200048960008262000456565b60018101905062000473565b5050565b601f821115620004e457620004ae8162000358565b620004b9846200036d565b81016020851015620004c9578190505b620004e1620004d8856200036d565b83018262000472565b50505b505050565b600082821c905092915050565b60006200050960001984600802620004e9565b1980831691505092915050565b6000620005248383620004f6565b9150826002028217905092915050565b6200053f82620002ba565b67ffffffffffffffff8111156200055b576200055a620002c5565b5b62000567825462000323565b6200057482828562000499565b600060209050601f831160018114620005ac576000841562000597578287015190505b620005a3858262000516565b86555062000613565b601f198416620005bc8662000358565b60005b82811015620005e657848901518255600182019150602085019450602081019050620005bf565b8683101562000606578489015162000602601f891682620004f6565b8355505b6001600288020188555050505b505050505050565b620006268162000243565b82525050565b60006020820190506200064360008301846200061b565b92915050565b61211a80620006596000396000f3fe608060405234801561001057600080fd5b50600436106101165760003560e01c8063715018a6116100a2578063a22cb46511610071578063a22cb465146102e1578063b88d4fde146102fd578063c87b56dd14610319578063e985e9c514610349578063f2fde38b1461037957610116565b8063715018a61461027d57806375794a3c146102875780638da5cb5b146102a557806395d89b41146102c357610116565b806323b872dd116100e957806323b872dd146101b557806342842e0e146101d15780636352211e146101ed5780636a6278421461021d57806370a082311461024d57610116565b806301ffc9a71461011b57806306fdde031461014b578063081812fc14610169578063095ea7b314610199575b600080fd5b610135600480360381019061013091906118ed565b610395565b6040516101429190611935565b60405180910390f35b610153610477565b60405161016091906119e0565b60405180910390f35b610183600480360381019061017e9190611a38565b610509565b6040516101909190611aa6565b60405180910390f35b6101b360048036038101906101ae9190611aed565b610525565b005b6101cf60048036038101906101ca9190611b2d565b61053b565b005b6101eb60048036038101906101e69190611b2d565b61063d565b005b61020760048036038101906102029190611a38565b61065d565b6040516102149190611aa6565b60405180910390f35b61023760048036038101906102329190611b80565b61066f565b6040516102449190611bbc565b60405180910390f35b61026760048036038101906102629190611b80565b6106ab565b6040516102749190611bbc565b60405180910390f35b610285610765565b005b61028f610779565b60405161029c9190611bbc565b60405180910390f35b6102ad61077f565b6040516102ba9190611aa6565b60405180910390f35b6102cb6107a9565b6040516102d891906119e0565b60405180910390f35b6102fb60048036038101906102f69190611c03565b61083b565b005b61031760048036038101906103129190611d78565b610851565b005b610333600480360381019061032e9190611a38565b610876565b60405161034091906119e0565b60405180910390f35b610363600480360381019061035e9190611dfb565b6108df565b6040516103709190611935565b60405180910390f35b610393600480360381019061038e9190611b80565b610973565b005b60007f80ac58cd000000000000000000000000000000000000000000000000000000007bffffffffffffffffffffffffffffffffffffffffffffffffffffffff1916827bffffffffffffffffffffffffffffffffffffffffffffffffffffffff1916148061046057507f5b5e139f000000000000000000000000000000000000000000000000000000007bffffffffffffffffffffffffffffffffffffffffffffffffffffffff1916827bffffffffffffffffffffffffffffffffffffffffffffffffffffffff1916145b80610470575061046f826109f9565b5b9050919050565b60606000805461048690611e6a565b80601f01602080910402602001604051908101604052809291908181526020018280546104b290611e6a565b80156104ff5780601f106104d4576101008083540402835291602001916104ff565b820191906000526020600020905b8154815290600101906020018083116104e257829003601f168201915b5050505050905090565b600061051482610a63565b5061051e82610aeb565b9050919050565b6105378282610532610b28565b610b30565b5050565b600073ffffffffffffffffffffffffffffffffffffffff168273ffffffffffffffffffffffffffffffffffffffff16036105ad5760006040517f64a0ae920000000000000000000000000000000000000000000000000000000081526004016105a49190611aa6565b60405180910390fd5b60006105c183836105bc610b28565b610b42565b90508373ffffffffffffffffffffffffffffffffffffffff168173ffffffffffffffffffffffffffffffffffffffff1614610637578382826040517f64283d7b00000000000000000000000000000000000000000000000000000000815260040161062e93929190611e9b565b60405180910390fd5b50505050565b61065883838360405180602001604052806000815250610851565b505050565b600061066882610a63565b9050919050565b6000610679610d5c565b6000600754905061068a8382610de3565b6007600081548092919061069d90611f01565b919050555080915050919050565b60008073ffffffffffffffffffffffffffffffffffffffff168273ffffffffffffffffffffffffffffffffffffffff160361071e5760006040517f89c62b640000000000000000000000000000000000000000000000000000000081526004016107159190611aa6565b60405180910390fd5b600360008373ffffffffffffffffffffffffffffffffffffffff1673ffffffffffffffffffffffffffffffffffffffff168152602001908152602001600020549050919050565b61076d610d5c565b6107776000610edc565b565b60075481565b6000600660009054906101000a900473ffffffffffffffffffffffffffffffffffffffff16905090565b6060600180546107b890611e6a565b80601f01602080910402602001604051908101604052809291908181526020018280546107e490611e6a565b80156108315780601f1061080657610100808354040283529160200191610831565b820191906000526020600020905b81548152906001019060200180831161081457829003601f168201915b5050505050905090565b61084d610846610b28565b8383610fa2565b5050565b61085c84848461053b565b610870610867610b28565b85858585611111565b50505050565b606061088182610a63565b50600061088c6112c2565b905060008151116108ac57604051806020016040528060008152506108d7565b806108b6846112d9565b6040516020016108c7929190611f85565b6040516020818303038152906040525b915050919050565b6000600560008473ffffffffffffffffffffffffffffffffffffffff1673ffffffffffffffffffffffffffffffffffffffff16815260200190815260200160002060008373ffffffffffffffffffffffffffffffffffffffff1673ffffffffffffffffffffffffffffffffffffffff16815260200190815260200160002060009054906101000a900460ff16905092915050565b61097b610d5c565b600073ffffffffffffffffffffffffffffffffffffffff168173ffffffffffffffffffffffffffffffffffffffff16036109ed5760006040517f1e4fbdf70000000000000000000000000000000000000000000000000000000081526004016109e49190611aa6565b60405180910390fd5b6109f681610edc565b50565b60007f01ffc9a7000000000000000000000000000000000000000000000000000000007bffffffffffffffffffffffffffffffffffffffffffffffffffffffff1916827bffffffffffffffffffffffffffffffffffffffffffffffffffffffff1916149050919050565b600080610a6f836113a7565b9050600073ffffffffffffffffffffffffffffffffffffffff168173ffffffffffffffffffffffffffffffffffffffff1603610ae257826040517f7e273289000000000000000000000000000000000000000000000000000000008152600401610ad99190611bbc565b60405180910390fd5b80915050919050565b60006004600083815260200190815260200160002060009054906101000a900473ffffffffffffffffffffffffffffffffffffffff169050919050565b600033905090565b610b3d83838360016113e4565b505050565b600080610b4e846113a7565b9050600073ffffffffffffffffffffffffffffffffffffffff168373ffffffffffffffffffffffffffffffffffffffff1614610b9057610b8f8184866115a9565b5b600073ffffffffffffffffffffffffffffffffffffffff168173ffffffffffffffffffffffffffffffffffffffff1614610c2157610bd26000856000806113e4565b6001600360008373ffffffffffffffffffffffffffffffffffffffff1673ffffffffffffffffffffffffffffffffffffffff168152602001908152602001600020600082825403925050819055505b600073ffffffffffffffffffffffffffffffffffffffff168573ffffffffffffffffffffffffffffffffffffffff1614610ca4576001600360008773ffffffffffffffffffffffffffffffffffffffff1673ffffffffffffffffffffffffffffffffffffffff168152602001908152602001600020600082825401925050819055505b846002600086815260200190815260200160002060006101000a81548173ffffffffffffffffffffffffffffffffffffffff021916908373ffffffffffffffffffffffffffffffffffffffff160217905550838573ffffffffffffffffffffffffffffffffffffffff168273ffffffffffffffffffffffffffffffffffffffff167fddf252ad1be2c89b69c2b068fc378daa952ba7f163c4a11628f55a4df523b3ef60405160405180910390a4809150509392505050565b610d64610b28565b73ffffffffffffffffffffffffffffffffffffffff16610d8261077f565b73ffffffffffffffffffffffffffffffffffffffff1614610de157610da5610b28565b6040517f118cdaa7000000000000000000000000000000000000000000000000000000008152600401610dd89190611aa6565b60405180910390fd5b565b600073ffffffffffffffffffffffffffffffffffffffff168273ffffffffffffffffffffffffffffffffffffffff1603610e555760006040517f64a0ae92000000000000000000000000000000000000000000000000000000008152600401610e4c9190611aa6565b60405180910390fd5b6000610e6383836000610b42565b9050600073ffffffffffffffffffffffffffffffffffffffff168173ffffffffffffffffffffffffffffffffffffffff1614610ed75760006040517f73c6ac6e000000000000000000000000000000000000000000000000000000008152600401610ece9190611aa6565b60405180910390fd5b505050565b6000600660009054906101000a900473ffffffffffffffffffffffffffffffffffffffff16905081600660006101000a81548173ffffffffffffffffffffffffffffffffffffffff021916908373ffffffffffffffffffffffffffffffffffffffff1602179055508173ffffffffffffffffffffffffffffffffffffffff168173ffffffffffffffffffffffffffffffffffffffff167f8be0079c531659141344cd1fd0a4f28419497f9722a3daafe3b4186f6b6457e060405160405180910390a35050565b600073ffffffffffffffffffffffffffffffffffffffff168273ffffffffffffffffffffffffffffffffffffffff160361101357816040517f5b08ba1800000000000000000000000000000000000000000000000000000000815260040161100a9190611aa6565b60405180910390fd5b80600560008573ffffffffffffffffffffffffffffffffffffffff1673ffffffffffffffffffffffffffffffffffffffff16815260200190815260200160002060008473ffffffffffffffffffffffffffffffffffffffff1673ffffffffffffffffffffffffffffffffffffffff16815260200190815260200160002060006101000a81548160ff0219169083151502179055508173ffffffffffffffffffffffffffffffffffffffff168373ffffffffffffffffffffffffffffffffffffffff167f17307eab39ab6107e8899845ad3d59bd9653f200f220920489ca2b5937696c31836040516111049190611935565b60405180910390a3505050565b60008373ffffffffffffffffffffffffffffffffffffffff163b11156112bb578273ffffffffffffffffffffffffffffffffffffffff1663150b7a02868685856040518563ffffffff1660e01b81526004016111709493929190611ffe565b6020604051808303816000875af19250505080156111ac57506040513d601f19601f820116820180604052508101906111a9919061205f565b60015b611230573d80600081146111dc576040519150601f19603f3d011682016040523d82523d6000602084013e6111e1565b606091505b50600081510361122857836040517f64a0ae9200000000000000000000000000000000000000000000000000000000815260040161121f9190611aa6565b60405180910390fd5b805181602001fd5b63150b7a0260e01b7bffffffffffffffffffffffffffffffffffffffffffffffffffffffff1916817bffffffffffffffffffffffffffffffffffffffffffffffffffffffff1916146112b957836040517f64a0ae920000000000000000000000000000000000000000000000000000000081526004016112b09190611aa6565b60405180910390fd5b505b5050505050565b606060405180602001604052806000815250905090565b6060600060016112e88461166d565b01905060008167ffffffffffffffff81111561130757611306611c4d565b5b6040519080825280601f01601f1916602001820160405280156113395781602001600182028036833780820191505090505b509050600082602001820190505b60011561139c578080600190039150507f3031323334353637383961626364656600000000000000000000000000000000600a86061a8153600a85816113905761138f61208c565b5b04945060008503611347575b819350505050919050565b60006002600083815260200190815260200160002060009054906101000a900473ffffffffffffffffffffffffffffffffffffffff169050919050565b808061141d5750600073ffffffffffffffffffffffffffffffffffffffff168273ffffffffffffffffffffffffffffffffffffffff1614155b1561155157600061142d84610a63565b9050600073ffffffffffffffffffffffffffffffffffffffff168373ffffffffffffffffffffffffffffffffffffffff161415801561149857508273ffffffffffffffffffffffffffffffffffffffff168173ffffffffffffffffffffffffffffffffffffffff1614155b80156114ab57506114a981846108df565b155b156114ed57826040517fa9fbf51f0000000000000000000000000000000000000000000000000000000081526004016114e49190611aa6565b60405180910390fd5b811561154f57838573ffffffffffffffffffffffffffffffffffffffff168273ffffffffffffffffffffffffffffffffffffffff167f8c5be1e5ebec7d5bd14f71427d1e84f3dd0314c0f7b2291e5b200ac8c7c3b92560405160405180910390a45b505b836004600085815260200190815260200160002060006101000a81548173ffffffffffffffffffffffffffffffffffffffff021916908373ffffffffffffffffffffffffffffffffffffffff16021790555050505050565b6115b48383836117c0565b61166857600073ffffffffffffffffffffffffffffffffffffffff168373ffffffffffffffffffffffffffffffffffffffff160361162957806040517f7e2732890000000000000000000000000000000000000000000000000000000081526004016116209190611bbc565b60405180910390fd5b81816040517f177e802f00000000000000000000000000000000000000000000000000000000815260040161165f9291906120bb565b60405180910390fd5b505050565b600080600090507a184f03e93ff9f4daa797ed6e38ed64bf6a1f01000000000000000083106116cb577a184f03e93ff9f4daa797ed6e38ed64bf6a1f01000000000000000083816116c1576116c061208c565b5b0492506040810190505b6d04ee2d6d415b85acef81000000008310611708576d04ee2d6d415b85acef810000000083816116fe576116fd61208c565b5b0492506020810190505b662386f26fc10000831061173757662386f26fc10000838161172d5761172c61208c565b5b0492506010810190505b6305f5e1008310611760576305f5e10083816117565761175561208c565b5b0492506008810190505b612710831061178557612710838161177b5761177a61208c565b5b0492506004810190505b606483106117a8576064838161179e5761179d61208c565b5b0492506002810190505b600a83106117b7576001810190505b80915050919050565b60008073ffffffffffffffffffffffffffffffffffffffff168373ffffffffffffffffffffffffffffffffffffffff161415801561187857508273ffffffffffffffffffffffffffffffffffffffff168473ffffffffffffffffffffffffffffffffffffffff161480611839575061183884846108df565b5b8061187757508273ffffffffffffffffffffffffffffffffffffffff1661185f83610aeb565b73ffffffffffffffffffffffffffffffffffffffff16145b5b90509392505050565b6000604051905090565b600080fd5b600080fd5b60007fffffffff0000000000000000000000000000000000000000000000000000000082169050919050565b6118ca81611895565b81146118d557600080fd5b50565b6000813590506118e7816118c1565b92915050565b6000602082840312156119035761190261188b565b5b6000611911848285016118d8565b91505092915050565b60008115159050919050565b61192f8161191a565b82525050565b600060208201905061194a6000830184611926565b92915050565b600081519050919050565b600082825260208201905092915050565b60005b8381101561198a57808201518184015260208101905061196f565b60008484015250505050565b6000601f19601f8301169050919050565b60006119b282611950565b6119bc818561195b565b93506119cc81856020860161196c565b6119d581611996565b840191505092915050565b600060208201905081810360008301526119fa81846119a7565b905092915050565b6000819050919050565b611a1581611a02565b8114611a2057600080fd5b50565b600081359050611a3281611a0c565b92915050565b600060208284031215611a4e57611a4d61188b565b5b6000611a5c84828501611a23565b91505092915050565b600073ffffffffffffffffffffffffffffffffffffffff82169050919050565b6000611a9082611a65565b9050919050565b611aa081611a85565b82525050565b6000602082019050611abb6000830184611a97565b92915050565b611aca81611a85565b8114611ad557600080fd5b50565b600081359050611ae781611ac1565b92915050565b60008060408385031215611b0457611b0361188b565b5b6000611b1285828601611ad8565b9250506020611b2385828601611a23565b9150509250929050565b600080600060608486031215611b4657611b4561188b565b5b6000611b5486828701611ad8565b9350506020611b6586828701611ad8565b9250506040611b7686828701611a23565b9150509250925092565b600060208284031215611b9657611b9561188b565b5b6000611ba484828501611ad8565b91505092915050565b611bb681611a02565b82525050565b6000602082019050611bd16000830184611bad565b92915050565b611be08161191a565b8114611beb57600080fd5b50565b600081359050611bfd81611bd7565b92915050565b60008060408385031215611c1a57611c1961188b565b5b6000611c2885828601611ad8565b9250506020611c3985828601611bee565b9150509250929050565b600080fd5b600080fd5b7f4e487b7100000000000000000000000000000000000000000000000000000000600052604160045260246000fd5b611c8582611996565b810181811067ffffffffffffffff82111715611ca457611ca3611c4d565b5b80604052505050565b6000611cb7611881565b9050611cc38282611c7c565b919050565b600067ffffffffffffffff821115611ce357611ce2611c4d565b5b611cec82611996565b9050602081019050919050565b82818337600083830152505050565b6000611d1b611d1684611cc8565b611cad565b905082815260208101848484011115611d3757611d36611c48565b5b611d42848285611cf9565b509392505050565b600082601f830112611d5f57611d5e611c43565b5b8135611d6f848260208601611d08565b91505092915050565b60008060008060808587031215611d9257611d9161188b565b5b6000611da087828801611ad8565b9450506020611db187828801611ad8565b9350506040611dc287828801611a23565b925050606085013567ffffffffffffffff811115611de357611de2611890565b5b611def87828801611d4a565b91505092959194509250565b60008060408385031215611e1257611e1161188b565b5b6000611e2085828601611ad8565b9250506020611e3185828601611ad8565b9150509250929050565b7f4e487b7100000000000000000000000000000000000000000000000000000000600052602260045260246000fd5b60006002820490506001821680611e8257607f821691505b602082108103611e9557611e94611e3b565b5b50919050565b6000606082019050611eb06000830186611a97565b611ebd6020830185611bad565b611eca6040830184611a97565b949350505050565b7f4e487b7100000000000000000000000000000000000000000000000000000000600052601160045260246000fd5b6000611f0c82611a02565b91507fffffffffffffffffffffffffffffffffffffffffffffffffffffffffffffffff8203611f3e57611f3d611ed2565b5b600182019050919050565b600081905092915050565b6000611f5f82611950565b611f698185611f49565b9350611f7981856020860161196c565b80840191505092915050565b6000611f918285611f54565b9150611f9d8284611f54565b91508190509392505050565b600081519050919050565b600082825260208201905092915050565b6000611fd082611fa9565b611fda8185611fb4565b9350611fea81856020860161196c565b611ff381611996565b840191505092915050565b60006080820190506120136000830187611a97565b6120206020830186611a97565b61202d6040830185611bad565b818103606083015261203f8184611fc5565b905095945050505050565b600081519050612059816118c1565b92915050565b6000602082840312156120755761207461188b565b5b60006120838482850161204a565b91505092915050565b7f4e487b7100000000000000000000000000000000000000000000000000000000600052601260045260246000fd5b60006040820190506120d06000830185611a97565b6120dd6020830184611bad565b939250505056fea2646970667358221220e286127a7f2e901709ff7c9b8b563d43641ac56614c50c274b3b736c5a9b059064736f6c63430008140033",
  "linkReferences": {},
  "deployedLinkReferences": {}
}