{
  "_format": "hh-sol-artifact-1",
  "contractName": "CCIPRouter",
  "sourceName": "contracts/CCIPRouter.sol",
  "abi": [
    {
      "inputs": [
        {
          "internalType": "string",
          "name": "data",
          "type": "string"
        }
      ],
      "name": "receiveMessage",
      "outputs": [],
      "stateMutability": "nonpayable",
      "type": "function"
    }
  ],
  "bytecode": "0x608060405234801561001057600080fd5b5061012a806100206000396000f3fe6080604052348015600f57600080fd5b506004361060285760003560e01c80632f049bf314602d575b600080fd5b60436004803603810190603f919060af565b6045565b005b5050565b600080fd5b600080fd5b600080fd5b600080fd5b600080fd5b60008083601f84011260755760746053565b5b8235905067ffffffffffffffff811115608f57608e6058565b5b60208301915083600182028301111560a85760a7605d565b5b9250929050565b6000806020838503121560c35760c26049565b5b600083013567ffffffffffffffff81111560de5760dd604e565b5b60e8858286016062565b9250925050925092905056fea26469706673582212204767da7f7fe3d66a1c8470ec0f97dd8a376b03320880211c61d6361932c5bf7564736f6c63430008140033",
  "linkReferences": {},
  "deployedLinkReferences": {}
}