{
  "_format": "hh-sol-artifact-1",
  "contractName": "VaultCore",
  "sourceName": "contracts/VaultCore.sol",
  "abi": [
    {
      "inputs": [
        {
          "internalType": "address",
          "name": "_priceFeed",
          "type": "address"
        }
      ],
      "stateMutability": "nonpayable",
      "type": "constructor"
    },
    {
      "anonymous": false,
      "inputs": [
        {
          "indexed": false,
          "internalType": "address",
          "name": "borrower",
          "type": "address"
        },
        {
          "indexed": false,
          "internalType": "uint256",
          "name": "amount",
          "type": "uint256"
        },
        {
          "indexed": false,
          "internalType": "uint256",
          "name": "loanId",
          "type": "uint256"
        }
      ],
      "name": "LoanIssued",
      "type": "event"
    },
    {
      "inputs": [],
      "name": "checkHealth",
      "outputs": [
        {
          "internalType": "bool",
          "name": "",
          "type": "bool"
        }
      ],
      "stateMutability": "view",
      "type": "function"
    },
    {
      "inputs": [],
      "name": "getLatestETHPrice",
      "outputs": [
        {
          "internalType": "int256",
          "name": "",
          "type": "int256"
        }
      ],
      "stateMutability": "view",
      "type": "function"
    },
    {
      "inputs": [],
      "name": "loanId",
      "outputs": [
        {
          "internalType": "uint256",
          "name": "",
          "type": "uint256"
        }
      ],
      "stateMutability": "view",
      "type": "function"
    },
    {
      "inputs": [
        {
          "internalType": "uint256",
          "name": "",
          "type": "uint256"
        }
      ],
      "name": "loans",
      "outputs": [
        {
          "internalType": "address",
          "name": "borrower",
          "type": "address"
        },
        {
          "internalType": "uint256",
          "name": "amount",
          "type": "uint256"
        },
        {
          "internalType": "bool",
          "name": "repaid",
          "type": "bool"
        }
      ],
      "stateMutability": "view",
      "type": "function"
    },
    {
      "inputs": [
        {
          "internalType": "uint256",
          "name": "assetId",
          "type": "uint256"
        },
        {
          "internalType": "uint256",
          "name": "amount",
          "type": "uint256"
        }
      ],
      "name": "receiveLoanApproval",
      "outputs": [],
      "stateMutability": "nonpayable",
      "type": "function"
    }
  ],
  "bytecode": "0x608060405234801561001057600080fd5b506040516107d83803806107d8833981810160405281019061003291906100db565b806000806101000a81548173ffffffffffffffffffffffffffffffffffffffff021916908373ffffffffffffffffffffffffffffffffffffffff16021790555050610108565b600080fd5b600073ffffffffffffffffffffffffffffffffffffffff82169050919050565b60006100a88261007d565b9050919050565b6100b88161009d565b81146100c357600080fd5b50565b6000815190506100d5816100af565b92915050565b6000602082840312156100f1576100f0610078565b5b60006100ff848285016100c6565b91505092915050565b6106c1806101176000396000f3fe608060405234801561001057600080fd5b50600436106100575760003560e01c80631753bbd71461005c578063777e0d861461007a57806386fcdc1914610098578063c95669a5146100b4578063e1ec3c68146100d2575b600080fd5b610064610104565b6040516100719190610346565b60405180910390f35b61008261010d565b60405161008f919061037a565b60405180910390f35b6100b260048036038101906100ad91906103d0565b6101ac565b005b6100bc6101b9565b6040516100c9919061041f565b60405180910390f35b6100ec60048036038101906100e7919061043a565b6101bf565b6040516100fb939291906104a8565b60405180910390f35b60006001905090565b60008060008054906101000a900473ffffffffffffffffffffffffffffffffffffffff1673ffffffffffffffffffffffffffffffffffffffff1663feaf968c6040518163ffffffff1660e01b815260040160a060405180830381865afa15801561017b573d6000803e3d6000fd5b505050506040513d601f19601f8201168201806040525081019061019f9190610562565b5050509150508091505090565b6101b581610216565b5050565b60025481565b60016020528060005260406000206000915090508060000160009054906101000a900473ffffffffffffffffffffffffffffffffffffffff16908060010154908060020160009054906101000a900460ff16905083565b60405180606001604052803373ffffffffffffffffffffffffffffffffffffffff1681526020018281526020016000151581525060016000600254815260200190815260200160002060008201518160000160006101000a81548173ffffffffffffffffffffffffffffffffffffffff021916908373ffffffffffffffffffffffffffffffffffffffff1602179055506020820151816001015560408201518160020160006101000a81548160ff0219169083151502179055509050507f1c793c0fda4a6b2b79dd68d91d9f7fde8f7aa0878615c36a4624e6ccdbb1ead13382600254604051610308939291906105dd565b60405180910390a16002600081548092919061032390610643565b919050555050565b60008115159050919050565b6103408161032b565b82525050565b600060208201905061035b6000830184610337565b92915050565b6000819050919050565b61037481610361565b82525050565b600060208201905061038f600083018461036b565b92915050565b600080fd5b6000819050919050565b6103ad8161039a565b81146103b857600080fd5b50565b6000813590506103ca816103a4565b92915050565b600080604083850312156103e7576103e6610395565b5b60006103f5858286016103bb565b9250506020610406858286016103bb565b9150509250929050565b6104198161039a565b82525050565b60006020820190506104346000830184610410565b92915050565b6000602082840312156104505761044f610395565b5b600061045e848285016103bb565b91505092915050565b600073ffffffffffffffffffffffffffffffffffffffff82169050919050565b600061049282610467565b9050919050565b6104a281610487565b82525050565b60006060820190506104bd6000830186610499565b6104ca6020830185610410565b6104d76040830184610337565b949350505050565b600069ffffffffffffffffffff82169050919050565b6104fe816104df565b811461050957600080fd5b50565b60008151905061051b816104f5565b92915050565b61052a81610361565b811461053557600080fd5b50565b60008151905061054781610521565b92915050565b60008151905061055c816103a4565b92915050565b600080600080600060a0868803121561057e5761057d610395565b5b600061058c8882890161050c565b955050602061059d88828901610538565b94505060406105ae8882890161054d565b93505060606105bf8882890161054d565b92505060806105d08882890161050c565b9150509295509295909350565b60006060820190506105f26000830186610499565b6105ff6020830185610410565b61060c6040830184610410565b949350505050565b7f4e487b7100000000000000000000000000000000000000000000000000000000600052601160045260246000fd5b600061064e8261039a565b91507fffffffffffffffffffffffffffffffffffffffffffffffffffffffffffffffff82036106805761067f610614565b5b60018201905091905056fea26469706673582212207acb13b026cd666c8b86a8e9b084c8ed63c220615e0a1dfc5004362b0da5030c64736f6c63430008140033",
  "linkReferences": {},
  "deployedLinkReferences": {}
}