{
  "_format": "hh-sol-artifact-1",
  "contractName": "VaultCore",
  "sourceName": "contracts/VaultCore.sol",
  "abi": [
    {
      "inputs": [
        {
          "internalType": "address",
          "name": "_priceFeed",
          "type": "address"
        }
      ],
      "stateMutability": "nonpayable",
      "type": "constructor"
    },
    {
      "anonymous": false,
      "inputs": [
        {
          "indexed": false,
          "internalType": "address",
          "name": "borrower",
          "type": "address"
        },
        {
          "indexed": false,
          "internalType": "uint256",
          "name": "amount",
          "type": "uint256"
        },
        {
          "indexed": false,
          "internalType": "uint256",
          "name": "loanId",
          "type": "uint256"
        }
      ],
      "name": "LoanIssued",
      "type": "event"
    },
    {
      "anonymous": false,
      "inputs": [
        {
          "indexed": false,
          "internalType": "uint256",
          "name": "loanId",
          "type": "uint256"
        }
      ],
      "name": "LoanLiquidated",
      "type": "event"
    },
    {
      "inputs": [],
      "name": "checkHealth",
      "outputs": [
        {
          "internalType": "bool",
          "name": "",
          "type": "bool"
        }
      ],
      "stateMutability": "view",
      "type": "function"
    },
    {
      "inputs": [
        {
          "internalType": "bytes",
          "name": "",
          "type": "bytes"
        }
      ],
      "name": "checkUpkeep",
      "outputs": [
        {
          "internalType": "bool",
          "name": "upkeepNeeded",
          "type": "bool"
        },
        {
          "internalType": "bytes",
          "name": "performData",
          "type": "bytes"
        }
      ],
      "stateMutability": "view",
      "type": "function"
    },
    {
      "inputs": [],
      "name": "getLatestETHPrice",
      "outputs": [
        {
          "internalType": "int256",
          "name": "",
          "type": "int256"
        }
      ],
      "stateMutability": "view",
      "type": "function"
    },
    {
      "inputs": [
        {
          "internalType": "uint256",
          "name": "_loanId",
          "type": "uint256"
        }
      ],
      "name": "liquidateLoan",
      "outputs": [],
      "stateMutability": "nonpayable",
      "type": "function"
    },
    {
      "inputs": [],
      "name": "loanId",
      "outputs": [
        {
          "internalType": "uint256",
          "name": "",
          "type": "uint256"
        }
      ],
      "stateMutability": "view",
      "type": "function"
    },
    {
      "inputs": [
        {
          "internalType": "uint256",
          "name": "",
          "type": "uint256"
        }
      ],
      "name": "loans",
      "outputs": [
        {
          "internalType": "address",
          "name": "borrower",
          "type": "address"
        },
        {
          "internalType": "uint256",
          "name": "amount",
          "type": "uint256"
        },
        {
          "internalType": "bool",
          "name": "repaid",
          "type": "bool"
        }
      ],
      "stateMutability": "view",
      "type": "function"
    },
    {
      "inputs": [
        {
          "internalType": "bytes",
          "name": "performData",
          "type": "bytes"
        }
      ],
      "name": "performUpkeep",
      "outputs": [],
      "stateMutability": "nonpayable",
      "type": "function"
    },
    {
      "inputs": [
        {
          "internalType": "uint256",
          "name": "assetId",
          "type": "uint256"
        },
        {
          "internalType": "uint256",
          "name": "amount",
          "type": "uint256"
        }
      ],
      "name": "receiveLoanApproval",
      "outputs": [],
      "stateMutability": "nonpayable",
      "type": "function"
    }
  ],
  "bytecode": "0x608060405234801561001057600080fd5b50604051610cad380380610cad833981810160405281019061003291906100db565b806000806101000a81548173ffffffffffffffffffffffffffffffffffffffff021916908373ffffffffffffffffffffffffffffffffffffffff16021790555050610108565b600080fd5b600073ffffffffffffffffffffffffffffffffffffffff82169050919050565b60006100a88261007d565b9050919050565b6100b88161009d565b81146100c357600080fd5b50565b6000815190506100d5816100af565b92915050565b6000602082840312156100f1576100f0610078565b5b60006100ff848285016100c6565b91505092915050565b610b96806101176000396000f3fe608060405234801561001057600080fd5b50600436106100885760003560e01c806386fcdc191161005b57806386fcdc1914610116578063c95669a514610132578063ccdd9f5d14610150578063e1ec3c681461016c57610088565b80631753bbd71461008d5780634585e33b146100ab5780636e04ff0d146100c7578063777e0d86146100f8575b600080fd5b61009561019e565b6040516100a29190610627565b60405180910390f35b6100c560048036038101906100c091906106b1565b6101a7565b005b6100e160048036038101906100dc91906106b1565b6101c8565b6040516100ef92919061078e565b60405180910390f35b61010061030a565b60405161010d91906107d7565b60405180910390f35b610130600480360381019061012b9190610828565b6103a9565b005b61013a6103b6565b6040516101479190610877565b60405180910390f35b61016a60048036038101906101659190610892565b6103bc565b005b61018660048036038101906101819190610892565b610488565b60405161019593929190610900565b60405180910390f35b60006001905090565b600082828101906101b89190610892565b90506101c3816103bc565b505050565b6000606060005b6002548110156102eb576001600082815260200190815260200160002060020160009054906101000a900460ff161580156102a757506102a6600160008381526020019081526020016000206040518060600160405290816000820160009054906101000a900473ffffffffffffffffffffffffffffffffffffffff1673ffffffffffffffffffffffffffffffffffffffff1673ffffffffffffffffffffffffffffffffffffffff168152602001600182015481526020016002820160009054906101000a900460ff1615151515815250506104df565b5b156102d8576001816040516020016102bf9190610877565b6040516020818303038152906040529250925050610303565b80806102e390610966565b9150506101cf565b50600060405180602001604052806000815250915091505b9250929050565b60008060008054906101000a900473ffffffffffffffffffffffffffffffffffffffff1673ffffffffffffffffffffffffffffffffffffffff1663feaf968c6040518163ffffffff1660e01b815260040160a060405180830381865afa158015610378573d6000803e3d6000fd5b505050506040513d601f19601f8201168201806040525081019061039c9190610a31565b5050509150508091505090565b6103b2816104f7565b5050565b60025481565b6001600082815260200190815260200160002060020160009054906101000a900460ff1615610420576040517f08c379a000000000000000000000000000000000000000000000000000000000815260040161041790610b09565b60405180910390fd5b600180600083815260200190815260200160002060020160006101000a81548160ff0219169083151502179055507faf91ffe368225045d42f7c2b4b90feb438133ac1e375e73bc9066652b70a1d778160405161047d9190610877565b60405180910390a150565b60016020528060005260406000206000915090508060000160009054906101000a900473ffffffffffffffffffffffffffffffffffffffff16908060010154908060020160009054906101000a900460ff16905083565b6000670de0b6b3a76400008260200151119050919050565b60405180606001604052803373ffffffffffffffffffffffffffffffffffffffff1681526020018281526020016000151581525060016000600254815260200190815260200160002060008201518160000160006101000a81548173ffffffffffffffffffffffffffffffffffffffff021916908373ffffffffffffffffffffffffffffffffffffffff1602179055506020820151816001015560408201518160020160006101000a81548160ff0219169083151502179055509050507f1c793c0fda4a6b2b79dd68d91d9f7fde8f7aa0878615c36a4624e6ccdbb1ead133826002546040516105e993929190610b29565b60405180910390a16002600081548092919061060490610966565b919050555050565b60008115159050919050565b6106218161060c565b82525050565b600060208201905061063c6000830184610618565b92915050565b600080fd5b600080fd5b600080fd5b600080fd5b600080fd5b60008083601f8401126106715761067061064c565b5b8235905067ffffffffffffffff81111561068e5761068d610651565b5b6020830191508360018202830111156106aa576106a9610656565b5b9250929050565b600080602083850312156106c8576106c7610642565b5b600083013567ffffffffffffffff8111156106e6576106e5610647565b5b6106f28582860161065b565b92509250509250929050565b600081519050919050565b600082825260208201905092915050565b60005b8381101561073857808201518184015260208101905061071d565b60008484015250505050565b6000601f19601f8301169050919050565b6000610760826106fe565b61076a8185610709565b935061077a81856020860161071a565b61078381610744565b840191505092915050565b60006040820190506107a36000830185610618565b81810360208301526107b58184610755565b90509392505050565b6000819050919050565b6107d1816107be565b82525050565b60006020820190506107ec60008301846107c8565b92915050565b6000819050919050565b610805816107f2565b811461081057600080fd5b50565b600081359050610822816107fc565b92915050565b6000806040838503121561083f5761083e610642565b5b600061084d85828601610813565b925050602061085e85828601610813565b9150509250929050565b610871816107f2565b82525050565b600060208201905061088c6000830184610868565b92915050565b6000602082840312156108a8576108a7610642565b5b60006108b684828501610813565b91505092915050565b600073ffffffffffffffffffffffffffffffffffffffff82169050919050565b60006108ea826108bf565b9050919050565b6108fa816108df565b82525050565b600060608201905061091560008301866108f1565b6109226020830185610868565b61092f6040830184610618565b949350505050565b7f4e487b7100000000000000000000000000000000000000000000000000000000600052601160045260246000fd5b6000610971826107f2565b91507fffffffffffffffffffffffffffffffffffffffffffffffffffffffffffffffff82036109a3576109a2610937565b5b600182019050919050565b600069ffffffffffffffffffff82169050919050565b6109cd816109ae565b81146109d857600080fd5b50565b6000815190506109ea816109c4565b92915050565b6109f9816107be565b8114610a0457600080fd5b50565b600081519050610a16816109f0565b92915050565b600081519050610a2b816107fc565b92915050565b600080600080600060a08688031215610a4d57610a4c610642565b5b6000610a5b888289016109db565b9550506020610a6c88828901610a07565b9450506040610a7d88828901610a1c565b9350506060610a8e88828901610a1c565b9250506080610a9f888289016109db565b9150509295509295909350565b600082825260208201905092915050565b7f416c726561647920726570616964000000000000000000000000000000000000600082015250565b6000610af3600e83610aac565b9150610afe82610abd565b602082019050919050565b60006020820190508181036000830152610b2281610ae6565b9050919050565b6000606082019050610b3e60008301866108f1565b610b4b6020830185610868565b610b586040830184610868565b94935050505056fea26469706673582212205f394ea58811d8656e299bc24350504e0f5bf4bf8578479316f3a1f959a7d35664736f6c63430008140033",
  "linkReferences": {},
  "deployedLinkReferences": {}
}